:100000000C942A000C943F000C943F000C943F0089
:100010000C943F000C943F000C943F000C943F0064
:100020000C943F000C943F000C943F000C943F0054
:100030000C943F000C943F000C943F000C943F0044
:100040000C943F000C943F000C943F000C943F0034
:100050000C943F0011241FBECFE5D8E0DEBFCDBF1A
:1000600010E0A0E6B0E0E0EEF3E002C005900D92F3
:10007000A636B107D9F70E949F010C94EE010C94AB
:100080000000843018F5683008F5442319F0413039
:10009000F1F0089521E030E001C0220F6A95EAF7FF
:1000A0002095823061F0833071F0813021F08BB384
:1000B00028232BBB089588B3282328BB089584B335
:1000C000282324BB089581B3282321BB089521E070
:1000D00030E001C0220F6A95EAF7823051F0833098
:1000E00059F0813019F08BB3282BE3CF88B3282B3C
:1000F000E4CF84B3282BE5CF81B3282BE6CF84301F
:1001000018F5683008F5442319F04130F1F00895EE
:1001100021E030E001C0220F6A95EAF72095823095
:1001200061F0833071F0813021F08AB328232ABB3B
:10013000089587B3282327BB089585B3282325BBBB
:10014000089582B3282322BB089521E030E001C046
:10015000220F6A95EAF7823051F0833059F08130EE
:1001600019F08AB3282BE3CF87B3282BE4CF85B3CC
:10017000282BE5CF82B3282BE6CF813089F030F0F1
:10018000823081F0833081F0892F089589B390E027
:1001900002C0959587956A95E2F7982F9170F4CFF4
:1001A00086B3F5CF83B3F3CF80B3F1CF843088F536
:1001B000662351F06130B1F0823041F1833041F17A
:1001C000813011F16BBB0895823041F0833041F0F2
:1001D000813011F01BBA089518BA089514BA089521
:1001E00011BA0895823051F0833059F0813019F0FE
:1001F0008FEF8BBB08958FEF88BB08958FEF84BB83
:1002000008958FEF81BB089568BB089564BB08957E
:1002100061BB0895843020F5662319F0613079F0D0
:100220000895823041F0833041F0813011F01ABAE4
:10023000089517BA089515BA089512BA089582302C
:1002400051F0833059F0813019F08FEF8ABB089557
:100250008FEF87BB08958FEF85BB08958FEF82BB2B
:100260000895813041F028F0823039F0833039F040
:10027000089589B3FDCF86B3FBCF83B3F9CF80B3A5
:10028000F7CF8130A9F028F0823001F1833061F19D
:1002900008954BB350E0062E02C0559547950A9439
:1002A000E2F7409550954170552780E00C9441004D
:1002B00048B350E0062E02C0559547950A94E2F7E0
:1002C000409550954170552781E0F0CF44B350E000
:1002D000062E02C0559547950A94E2F74095509531
:1002E0004170552782E0E2CF41B350E0062E02C0B4
:1002F000559547950A94E2F74095509541705527DA
:1003000083E0D4CF862F672F41E00C947F00962F97
:10031000672F41E0813019F0811104C040E0892F3E
:100320000C9441000895962F672F40E0813019F01A
:10033000811104C041E0892F0C9441000895609020
:1003400060007090610080906200C0906300D09067
:100350006400E090650060E070E081E00E9482014E
:10036000882DB3010E9482018E2DB6010E94820168
:100370008E2DB6010E9487012FE38DE093E021507E
:1003800080409040E1F700C00000882DB3010E943A
:1003900087012FE38DE093E0215080409040E1F70A
:1003A00000C0000060E070E081E00E9487012FE360
:1003B0008DE093E0215080409040E1F700C00000C4
:1003C00060E070E081E00E949301882DB3010E94FB
:1003D00093018E2DB6010E949301CACFF894FFCFEE
:0603E00000010100020112
:00000001FF
